{"abi":[{"type":"constructor","inputs":[{"name":"version","type":"uint256","internalType":"uint256"},{"name":"erc6551_account","type":"address","internalType":"address"},{"name":"erc6551_registry","type":"address","internalType":"address"}],"stateMutability":"nonpayable"},{"type":"function","name":"OWNER","inputs":[],"outputs":[{"name":"","type":"address","internalType":"address"}],"stateMutability":"view"},{"type":"function","name":"approve","inputs":[{"name":"to","type":"address","internalType":"address"},{"name":"tokenId","type":"uint256","internalType":"uint256"}],"outputs":[],"stateMutability":"nonpayable"},{"type":"function","name":"balanceOf","inputs":[{"name":"owner","type":"address","internalType":"address"}],"outputs":[{"name":"","type":"uint256","internalType":"uint256"}],"stateMutability":"view"},{"type":"function","name":"createPlayer","inputs":[{"name":"avatarURI","type":"string","internalType":"string"}],"outputs":[{"name":"newAvatarId","type":"uint256","internalType":"uint256"},{"name":"AvatarAddress","type":"address","internalType":"address"}],"stateMutability":"nonpayable"},{"type":"function","name":"getApproved","inputs":[{"name":"tokenId","type":"uint256","internalType":"uint256"}],"outputs":[{"name":"","type":"address","internalType":"address"}],"stateMutability":"view"},{"type":"function","name":"getAvatarAddress","inputs":[{"name":"avatarId","type":"uint256","internalType":"uint256"}],"outputs":[{"name":"AvatarAddress","type":"address","internalType":"address"}],"stateMutability":"view"},{"type":"function","name":"isApprovedForAll","inputs":[{"name":"owner","type":"address","internalType":"address"},{"name":"operator","type":"address","internalType":"address"}],"outputs":[{"name":"","type":"bool","internalType":"bool"}],"stateMutability":"view"},{"type":"function","name":"name","inputs":[],"outputs":[{"name":"","type":"string","internalType":"string"}],"stateMutability":"view"},{"type":"function","name":"ownerOf","inputs":[{"name":"tokenId","type":"uint256","internalType":"uint256"}],"outputs":[{"name":"","type":"address","internalType":"address"}],"stateMutability":"view"},{"type":"function","name":"safeTransferFrom","inputs":[{"name":"from","type":"address","internalType":"address"},{"name":"to","type":"address","internalType":"address"},{"name":"tokenId","type":"uint256","internalType":"uint256"}],"outputs":[],"stateMutability":"nonpayable"},{"type":"function","name":"safeTransferFrom","inputs":[{"name":"from","type":"address","internalType":"address"},{"name":"to","type":"address","internalType":"address"},{"name":"tokenId","type":"uint256","internalType":"uint256"},{"name":"data","type":"bytes","internalType":"bytes"}],"outputs":[],"stateMutability":"nonpayable"},{"type":"function","name":"setApprovalForAll","inputs":[{"name":"operator","type":"address","internalType":"address"},{"name":"approved","type":"bool","internalType":"bool"}],"outputs":[],"stateMutability":"nonpayable"},{"type":"function","name":"supportsInterface","inputs":[{"name":"interfaceId","type":"bytes4","internalType":"bytes4"}],"outputs":[{"name":"","type":"bool","internalType":"bool"}],"stateMutability":"view"},{"type":"function","name":"symbol","inputs":[],"outputs":[{"name":"","type":"string","internalType":"string"}],"stateMutability":"view"},{"type":"function","name":"tokenURI","inputs":[{"name":"tokenId","type":"uint256","internalType":"uint256"}],"outputs":[{"name":"","type":"string","internalType":"string"}],"stateMutability":"view"},{"type":"function","name":"transferFrom","inputs":[{"name":"from","type":"address","internalType":"address"},{"name":"to","type":"address","internalType":"address"},{"name":"tokenId","type":"uint256","internalType":"uint256"}],"outputs":[],"stateMutability":"nonpayable"},{"type":"event","name":"Approval","inputs":[{"name":"owner","type":"address","indexed":true,"internalType":"address"},{"name":"approved","type":"address","indexed":true,"internalType":"address"},{"name":"tokenId","type":"uint256","indexed":true,"internalType":"uint256"}],"anonymous":false},{"type":"event","name":"ApprovalForAll","inputs":[{"name":"owner","type":"address","indexed":true,"internalType":"address"},{"name":"operator","type":"address","indexed":true,"internalType":"address"},{"name":"approved","type":"bool","indexed":false,"internalType":"bool"}],"anonymous":false},{"type":"event","name":"BatchMetadataUpdate","inputs":[{"name":"_fromTokenId","type":"uint256","indexed":false,"internalType":"uint256"},{"name":"_toTokenId","type":"uint256","indexed":false,"internalType":"uint256"}],"anonymous":false},{"type":"event","name":"CreatedPlayer","inputs":[{"name":"avatarId","type":"uint256","indexed":true,"internalType":"uint256"},{"name":"avatarAccountAddress","type":"address","indexed":true,"internalType":"address"}],"anonymous":false},{"type":"event","name":"DeployedPlayersContract","inputs":[{"name":"owner","type":"address","indexed":true,"internalType":"address"},{"name":"version","type":"uint256","indexed":true,"internalType":"uint256"},{"name":"erc6551_account","type":"address","indexed":true,"internalType":"address"}],"anonymous":false},{"type":"event","name":"MetadataUpdate","inputs":[{"name":"_tokenId","type":"uint256","indexed":false,"internalType":"uint256"}],"anonymous":false},{"type":"event","name":"Transfer","inputs":[{"name":"from","type":"address","indexed":true,"internalType":"address"},{"name":"to","type":"address","indexed":true,"internalType":"address"},{"name":"tokenId","type":"uint256","indexed":true,"internalType":"uint256"}],"anonymous":false},{"type":"error","name":"Players__AvatarDoesNotExist","inputs":[]}],"bytecode":{"object":"0x60e06040523480156200001157600080fd5b5060405162001c1538038062001c15833981016040819052620000349162000119565b6040518060400160405280601b81526020017f436174732c20446f677320616e64204d656d65732041766174617200000000008152506040518060400160405280600381526020016243444d60e81b8152508160009081620000979190620001ff565b506001620000a68282620001ff565b50503360808190526001600160a01b0384811660c081905290841660a0526040519092508591907f1bcefa9bc5efea2d5ecd4ff078e0d68f859c396cef0dae5a2ed3f675f942811e90600090a4505050620002cb565b80516001600160a01b03811681146200011457600080fd5b919050565b6000806000606084860312156200012f57600080fd5b835192506200014160208501620000fc565b91506200015160408501620000fc565b90509250925092565b634e487b7160e01b600052604160045260246000fd5b600181811c908216806200018557607f821691505b602082108103620001a657634e487b7160e01b600052602260045260246000fd5b50919050565b601f821115620001fa57600081815260208120601f850160051c81016020861015620001d55750805b601f850160051c820191505b81811015620001f657828155600101620001e1565b5050505b505050565b81516001600160401b038111156200021b576200021b6200015a565b62000233816200022c845462000170565b84620001ac565b602080601f8311600181146200026b5760008415620002525750858301515b600019600386901b1c1916600185901b178555620001f6565b600085815260208120601f198616915b828110156200029c578886015182559484019460019091019084016200027b565b5085821015620002bb5787850151600019600388901b60f8161c191681555b5050505050600190811b01905550565b60805160a05160c05161190c62000309600039600081816106300152610f020152600081816106770152610f4c01526000610187015261190c6000f3fe608060405234801561001057600080fd5b50600436106101005760003560e01c806370a0823111610097578063b586a74011610066578063b586a74014610231578063b88d4fde14610261578063c87b56dd14610274578063e985e9c51461028757600080fd5b806370a08231146101e2578063726ecb551461020357806395d89b4114610216578063a22cb4651461021e57600080fd5b8063117803e3116100d3578063117803e31461018257806323b872dd146101a957806342842e0e146101bc5780636352211e146101cf57600080fd5b806301ffc9a71461010557806306fdde031461012d578063081812fc14610142578063095ea7b31461016d575b600080fd5b6101186101133660046112e3565b6102c3565b60405190151581526020015b60405180910390f35b6101356102ee565b6040516101249190611357565b61015561015036600461136a565b610380565b6040516001600160a01b039091168152602001610124565b61018061017b366004611398565b6103a7565b005b6101557f000000000000000000000000000000000000000000000000000000000000000081565b6101806101b73660046113c4565b6104c1565b6101806101ca3660046113c4565b6104f2565b6101556101dd36600461136a565b61050d565b6101f56101f0366004611405565b61056d565b604051908152602001610124565b61015561021136600461136a565b6105f3565b6101356106eb565b61018061022c366004611422565b6106fa565b61024461023f3660046114ec565b610709565b604080519283526001600160a01b03909116602083015201610124565b61018061026f366004611535565b61077d565b61013561028236600461136a565b6107b5565b6101186102953660046115b5565b6001600160a01b03918216600090815260056020908152604080832093909416825291909152205460ff1690565b60006001600160e01b03198216632483248360e11b14806102e857506102e8826108c5565b92915050565b6060600080546102fd906115e3565b80601f0160208091040260200160405190810160405280929190818152602001828054610329906115e3565b80156103765780601f1061034b57610100808354040283529160200191610376565b820191906000526020600020905b81548152906001019060200180831161035957829003601f168201915b5050505050905090565b600061038b82610915565b506000908152600460205260409020546001600160a01b031690565b60006103b28261050d565b9050806001600160a01b0316836001600160a01b0316036104245760405162461bcd60e51b815260206004820152602160248201527f4552433732313a20617070726f76616c20746f2063757272656e74206f776e656044820152603960f91b60648201526084015b60405180910390fd5b336001600160a01b038216148061044057506104408133610295565b6104b25760405162461bcd60e51b815260206004820152603d60248201527f4552433732313a20617070726f76652063616c6c6572206973206e6f7420746f60448201527f6b656e206f776e6572206f7220617070726f76656420666f7220616c6c000000606482015260840161041b565b6104bc8383610977565b505050565b6104cb33826109e5565b6104e75760405162461bcd60e51b815260040161041b90611617565b6104bc838383610a63565b6104bc8383836040518060200160405280600081525061077d565b6000818152600260205260408120546001600160a01b0316806102e85760405162461bcd60e51b8152602060048201526018602482015277115490cdcc8c4e881a5b9d985b1a59081d1bdad95b88125160421b604482015260640161041b565b60006001600160a01b0382166105d75760405162461bcd60e51b815260206004820152602960248201527f4552433732313a2061646472657373207a65726f206973206e6f7420612076616044820152683634b21037bbb732b960b91b606482015260840161041b565b506001600160a01b031660009081526003602052604090205490565b6000816007548111156106195760405163c46e9ce360e01b815260040160405180910390fd5b60405163246a002160e01b81526001600160a01b037f000000000000000000000000000000000000000000000000000000000000000081166004830152627ceda560e81b6024830152466044830152306064830152608482018590527f0000000000000000000000000000000000000000000000000000000000000000169063246a00219060a401602060405180830381865afa1580156106be573d6000803e3d6000fd5b505050506040513d601f19601f820116820180604052508101906106e29190611664565b91505b50919050565b6060600180546102fd906115e3565b610705338383610bc7565b5050565b600780549060009082908261071d83611681565b919050555061072c3383610c95565b6107368284610e20565b61073f82610eeb565b9050806001600160a01b0316827fc12b9f2469deda9503b4a07ba219659e019402462444977aabe4aaa86758e2ad60405160405180910390a3915091565b61078733836109e5565b6107a35760405162461bcd60e51b815260040161041b90611617565b6107af84848484610fbb565b50505050565b60606107c082610915565b600082815260066020526040812080546107d9906115e3565b80601f0160208091040260200160405190810160405280929190818152602001828054610805906115e3565b80156108525780601f1061082757610100808354040283529160200191610852565b820191906000526020600020905b81548152906001019060200180831161083557829003601f168201915b50505050509050600061087060408051602081019091526000815290565b90508051600003610882575092915050565b8151156108b457808260405160200161089c9291906116a8565b60405160208183030381529060405292505050919050565b6108bd84610fee565b949350505050565b60006001600160e01b031982166380ac58cd60e01b14806108f657506001600160e01b03198216635b5e139f60e01b145b806102e857506301ffc9a760e01b6001600160e01b03198316146102e8565b6000818152600260205260409020546001600160a01b03166109745760405162461bcd60e51b8152602060048201526018602482015277115490cdcc8c4e881a5b9d985b1a59081d1bdad95b88125160421b604482015260640161041b565b50565b600081815260046020526040902080546001600160a01b0319166001600160a01b03841690811790915581906109ac8261050d565b6001600160a01b03167f8c5be1e5ebec7d5bd14f71427d1e84f3dd0314c0f7b2291e5b200ac8c7c3b92560405160405180910390a45050565b6000806109f18361050d565b9050806001600160a01b0316846001600160a01b03161480610a3857506001600160a01b0380821660009081526005602090815260408083209388168352929052205460ff165b806108bd5750836001600160a01b0316610a5184610380565b6001600160a01b031614949350505050565b826001600160a01b0316610a768261050d565b6001600160a01b031614610a9c5760405162461bcd60e51b815260040161041b906116d7565b6001600160a01b038216610afe5760405162461bcd60e51b8152602060048201526024808201527f4552433732313a207472616e7366657220746f20746865207a65726f206164646044820152637265737360e01b606482015260840161041b565b826001600160a01b0316610b118261050d565b6001600160a01b031614610b375760405162461bcd60e51b815260040161041b906116d7565b600081815260046020908152604080832080546001600160a01b03199081169091556001600160a01b0387811680865260038552838620805460001901905590871680865283862080546001019055868652600290945282852080549092168417909155905184937fddf252ad1be2c89b69c2b068fc378daa952ba7f163c4a11628f55a4df523b3ef91a4505050565b816001600160a01b0316836001600160a01b031603610c285760405162461bcd60e51b815260206004820152601960248201527f4552433732313a20617070726f766520746f2063616c6c657200000000000000604482015260640161041b565b6001600160a01b03838116600081815260056020908152604080832094871680845294825291829020805460ff191686151590811790915591519182527f17307eab39ab6107e8899845ad3d59bd9653f200f220920489ca2b5937696c31910160405180910390a3505050565b6001600160a01b038216610ceb5760405162461bcd60e51b815260206004820181905260248201527f4552433732313a206d696e7420746f20746865207a65726f2061646472657373604482015260640161041b565b6000818152600260205260409020546001600160a01b031615610d505760405162461bcd60e51b815260206004820152601c60248201527f4552433732313a20746f6b656e20616c7265616479206d696e74656400000000604482015260640161041b565b6000818152600260205260409020546001600160a01b031615610db55760405162461bcd60e51b815260206004820152601c60248201527f4552433732313a20746f6b656e20616c7265616479206d696e74656400000000604482015260640161041b565b6001600160a01b038216600081815260036020908152604080832080546001019055848352600290915280822080546001600160a01b0319168417905551839291907fddf252ad1be2c89b69c2b068fc378daa952ba7f163c4a11628f55a4df523b3ef908290a45050565b6000828152600260205260409020546001600160a01b0316610e9b5760405162461bcd60e51b815260206004820152602e60248201527f45524337323155524953746f726167653a2055524920736574206f66206e6f6e60448201526d32bc34b9ba32b73a103a37b5b2b760911b606482015260840161041b565b6000828152600660205260409020610eb3828261176a565b506040518281527ff8e1a15aba9398e019f0b49df1a4fde98ee17ae345cb5f6b5e2c27f5033e8ce79060200160405180910390a15050565b604051638a54c52f60e01b81526001600160a01b037f000000000000000000000000000000000000000000000000000000000000000081166004830152627ceda560e81b6024830152466044830152306064830152608482018390526000917f000000000000000000000000000000000000000000000000000000000000000090911690638a54c52f9060a4016020604051808303816000875af1158015610f97573d6000803e3d6000fd5b505050506040513d601f19601f820116820180604052508101906102e89190611664565b610fc6848484610a63565b610fd284848484611061565b6107af5760405162461bcd60e51b815260040161041b9061182a565b6060610ff982610915565b600061101060408051602081019091526000815290565b9050600081511161103057604051806020016040528060008152506106e2565b8061103a84611162565b60405160200161104b9291906116a8565b6040516020818303038152906040529392505050565b60006001600160a01b0384163b1561115757604051630a85bd0160e11b81526001600160a01b0385169063150b7a02906110a590339089908890889060040161187c565b6020604051808303816000875af19250505080156110e0575060408051601f3d908101601f191682019092526110dd918101906118b9565b60015b61113d573d80801561110e576040519150601f19603f3d011682016040523d82523d6000602084013e611113565b606091505b5080516000036111355760405162461bcd60e51b815260040161041b9061182a565b805181602001fd5b6001600160e01b031916630a85bd0160e11b1490506108bd565b506001949350505050565b6060600061116f836111f5565b600101905060008167ffffffffffffffff81111561118f5761118f611460565b6040519080825280601f01601f1916602001820160405280156111b9576020820181803683370190505b5090508181016020015b600019016f181899199a1a9b1b9c1cb0b131b232b360811b600a86061a8153600a85049450846111c357509392505050565b60008072184f03e93ff9f4daa797ed6e38ed64bf6a1f0160401b83106112345772184f03e93ff9f4daa797ed6e38ed64bf6a1f0160401b830492506040015b6d04ee2d6d415b85acef81000000008310611260576d04ee2d6d415b85acef8100000000830492506020015b662386f26fc10000831061127e57662386f26fc10000830492506010015b6305f5e1008310611296576305f5e100830492506008015b61271083106112aa57612710830492506004015b606483106112bc576064830492506002015b600a83106102e85760010192915050565b6001600160e01b03198116811461097457600080fd5b6000602082840312156112f557600080fd5b8135611300816112cd565b9392505050565b60005b8381101561132257818101518382015260200161130a565b50506000910152565b60008151808452611343816020860160208601611307565b601f01601f19169290920160200192915050565b602081526000611300602083018461132b565b60006020828403121561137c57600080fd5b5035919050565b6001600160a01b038116811461097457600080fd5b600080604083850312156113ab57600080fd5b82356113b681611383565b946020939093013593505050565b6000806000606084860312156113d957600080fd5b83356113e481611383565b925060208401356113f481611383565b929592945050506040919091013590565b60006020828403121561141757600080fd5b813561130081611383565b6000806040838503121561143557600080fd5b823561144081611383565b91506020830135801515811461145557600080fd5b809150509250929050565b634e487b7160e01b600052604160045260246000fd5b600067ffffffffffffffff8084111561149157611491611460565b604051601f8501601f19908116603f011681019082821181831017156114b9576114b9611460565b816040528093508581528686860111156114d257600080fd5b858560208301376000602087830101525050509392505050565b6000602082840312156114fe57600080fd5b813567ffffffffffffffff81111561151557600080fd5b8201601f8101841361152657600080fd5b6108bd84823560208401611476565b6000806000806080858703121561154b57600080fd5b843561155681611383565b9350602085013561156681611383565b925060408501359150606085013567ffffffffffffffff81111561158957600080fd5b8501601f8101871361159a57600080fd5b6115a987823560208401611476565b91505092959194509250565b600080604083850312156115c857600080fd5b82356115d381611383565b9150602083013561145581611383565b600181811c908216806115f757607f821691505b6020821081036106e557634e487b7160e01b600052602260045260246000fd5b6020808252602d908201527f4552433732313a2063616c6c6572206973206e6f7420746f6b656e206f776e6560408201526c1c881bdc88185c1c1c9bdd9959609a1b606082015260800190565b60006020828403121561167657600080fd5b815161130081611383565b6000600182016116a157634e487b7160e01b600052601160045260246000fd5b5060010190565b600083516116ba818460208801611307565b8351908301906116ce818360208801611307565b01949350505050565b60208082526025908201527f4552433732313a207472616e736665722066726f6d20696e636f72726563742060408201526437bbb732b960d91b606082015260800190565b601f8211156104bc57600081815260208120601f850160051c810160208610156117435750805b601f850160051c820191505b818110156117625782815560010161174f565b505050505050565b815167ffffffffffffffff81111561178457611784611460565b6117988161179284546115e3565b8461171c565b602080601f8311600181146117cd57600084156117b55750858301515b600019600386901b1c1916600185901b178555611762565b600085815260208120601f198616915b828110156117fc578886015182559484019460019091019084016117dd565b508582101561181a5787850151600019600388901b60f8161c191681555b5050505050600190811b01905550565b60208082526032908201527f4552433732313a207472616e7366657220746f206e6f6e20455243373231526560408201527131b2b4bb32b91034b6b83632b6b2b73a32b960711b606082015260800190565b6001600160a01b03858116825284166020820152604081018390526080606082018190526000906118af9083018461132b565b9695505050505050565b6000602082840312156118cb57600080fd5b8151611300816112cd56fea26469706673582212201cc42c66d1d27c23aaf7021cf19032e52f72719670bc85bb679ce13cd2b35f6464736f6c63430008130033","linkReferences":{}},"methodIdentifiers":{"OWNER()":"117803e3","approve(address,uint256)":"095ea7b3","balanceOf(address)":"70a08231","createPlayer(string)":"b586a740","getApproved(uint256)":"081812fc","getAvatarAddress(uint256)":"726ecb55","isApprovedForAll(address,address)":"e985e9c5","name()":"06fdde03","ownerOf(uint256)":"6352211e","safeTransferFrom(address,address,uint256)":"42842e0e","safeTransferFrom(address,address,uint256,bytes)":"b88d4fde","setApprovalForAll(address,bool)":"a22cb465","supportsInterface(bytes4)":"01ffc9a7","symbol()":"95d89b41","tokenURI(uint256)":"c87b56dd","transferFrom(address,address,uint256)":"23b872dd"},"id":95}