{"abi":[{"type":"constructor","inputs":[{"name":"priceCardPack","type":"uint256","internalType":"uint256"},{"name":"packThresholds","type":"uint256[]","internalType":"uint256[]"},{"name":"packCoinAmounts","type":"uint256[]","internalType":"uint256[]"}],"stateMutability":"nonpayable"},{"type":"fallback","stateMutability":"payable"},{"type":"receive","stateMutability":"payable"},{"type":"function","name":"addToCoinAllowance","inputs":[{"name":"coins","type":"uint256","internalType":"uint256"},{"name":"recipient","type":"address","internalType":"address"}],"outputs":[],"stateMutability":"nonpayable"},{"type":"function","name":"balanceOf","inputs":[{"name":"account","type":"address","internalType":"address"},{"name":"id","type":"uint256","internalType":"uint256"}],"outputs":[{"name":"","type":"uint256","internalType":"uint256"}],"stateMutability":"view"},{"type":"function","name":"balanceOfBatch","inputs":[{"name":"accounts","type":"address[]","internalType":"address[]"},{"name":"ids","type":"uint256[]","internalType":"uint256[]"}],"outputs":[{"name":"","type":"uint256[]","internalType":"uint256[]"}],"stateMutability":"view"},{"type":"function","name":"createCards","inputs":[{"name":"cards","type":"tuple[]","internalType":"struct Cards.Card[]","components":[{"name":"name","type":"string","internalType":"string"},{"name":"cardType","type":"string","internalType":"string"},{"name":"atk","type":"uint16","internalType":"uint16"},{"name":"hp","type":"uint16","internalType":"uint16"},{"name":"spd","type":"uint16","internalType":"uint16"},{"name":"infRange","type":"uint16","internalType":"uint16"},{"name":"supRange","type":"uint16","internalType":"uint16"}]},{"name":"mintAmounts","type":"uint256[]","internalType":"uint256[]"},{"name":"newuri","type":"string","internalType":"string"}],"outputs":[],"stateMutability":"nonpayable"},{"type":"function","name":"getCollection","inputs":[{"name":"AvatarBasedAccount","type":"address","internalType":"address"}],"outputs":[{"name":"cardCollection","type":"uint256[]","internalType":"uint256[]"}],"stateMutability":"view"},{"type":"function","name":"isApprovedForAll","inputs":[{"name":"account","type":"address","internalType":"address"},{"name":"operator","type":"address","internalType":"address"}],"outputs":[{"name":"","type":"bool","internalType":"bool"}],"stateMutability":"view"},{"type":"function","name":"onERC1155BatchReceived","inputs":[{"name":"","type":"address","internalType":"address"},{"name":"","type":"address","internalType":"address"},{"name":"","type":"uint256[]","internalType":"uint256[]"},{"name":"","type":"uint256[]","internalType":"uint256[]"},{"name":"","type":"bytes","internalType":"bytes"}],"outputs":[{"name":"","type":"bytes4","internalType":"bytes4"}],"stateMutability":"nonpayable"},{"type":"function","name":"onERC1155Received","inputs":[{"name":"","type":"address","internalType":"address"},{"name":"","type":"address","internalType":"address"},{"name":"","type":"uint256","internalType":"uint256"},{"name":"","type":"uint256","internalType":"uint256"},{"name":"","type":"bytes","internalType":"bytes"}],"outputs":[{"name":"","type":"bytes4","internalType":"bytes4"}],"stateMutability":"nonpayable"},{"type":"function","name":"openCardPack","inputs":[{"name":"cardPackNumber","type":"uint256","internalType":"uint256"}],"outputs":[],"stateMutability":"payable"},{"type":"function","name":"retrieveFunds","inputs":[],"outputs":[],"stateMutability":"nonpayable"},{"type":"function","name":"s_cardIds","inputs":[{"name":"","type":"uint256","internalType":"uint256"}],"outputs":[{"name":"","type":"uint256","internalType":"uint256"}],"stateMutability":"view"},{"type":"function","name":"s_cardPackCounter","inputs":[],"outputs":[{"name":"","type":"uint256","internalType":"uint256"}],"stateMutability":"view"},{"type":"function","name":"s_cards","inputs":[{"name":"cardId","type":"uint256","internalType":"uint256"}],"outputs":[{"name":"name","type":"string","internalType":"string"},{"name":"cardType","type":"string","internalType":"string"},{"name":"atk","type":"uint16","internalType":"uint16"},{"name":"hp","type":"uint16","internalType":"uint16"},{"name":"spd","type":"uint16","internalType":"uint16"},{"name":"infRange","type":"uint16","internalType":"uint16"},{"name":"supRange","type":"uint16","internalType":"uint16"}],"stateMutability":"view"},{"type":"function","name":"s_coinAllowance","inputs":[{"name":"avatarBasedAccount","type":"address","internalType":"address"}],"outputs":[{"name":"allowance","type":"uint256","internalType":"uint256"}],"stateMutability":"view"},{"type":"function","name":"s_coins","inputs":[],"outputs":[{"name":"","type":"address","internalType":"address"}],"stateMutability":"view"},{"type":"function","name":"s_owner","inputs":[],"outputs":[{"name":"","type":"address","internalType":"address"}],"stateMutability":"view"},{"type":"function","name":"s_packCoinAmounts","inputs":[{"name":"","type":"uint256","internalType":"uint256"}],"outputs":[{"name":"","type":"uint256","internalType":"uint256"}],"stateMutability":"view"},{"type":"function","name":"s_packThresholds","inputs":[{"name":"","type":"uint256","internalType":"uint256"}],"outputs":[{"name":"","type":"uint256","internalType":"uint256"}],"stateMutability":"view"},{"type":"function","name":"s_priceCardPack","inputs":[],"outputs":[{"name":"","type":"uint256","internalType":"uint256"}],"stateMutability":"view"},{"type":"function","name":"safeBatchTransferFrom","inputs":[{"name":"from","type":"address","internalType":"address"},{"name":"to","type":"address","internalType":"address"},{"name":"ids","type":"uint256[]","internalType":"uint256[]"},{"name":"amounts","type":"uint256[]","internalType":"uint256[]"},{"name":"data","type":"bytes","internalType":"bytes"}],"outputs":[],"stateMutability":"nonpayable"},{"type":"function","name":"safeTransferFrom","inputs":[{"name":"from","type":"address","internalType":"address"},{"name":"to","type":"address","internalType":"address"},{"name":"id","type":"uint256","internalType":"uint256"},{"name":"amount","type":"uint256","internalType":"uint256"},{"name":"data","type":"bytes","internalType":"bytes"}],"outputs":[],"stateMutability":"nonpayable"},{"type":"function","name":"setApprovalForAll","inputs":[{"name":"operator","type":"address","internalType":"address"},{"name":"approved","type":"bool","internalType":"bool"}],"outputs":[],"stateMutability":"nonpayable"},{"type":"function","name":"setPriceCardPack","inputs":[{"name":"newPrice","type":"uint256","internalType":"uint256"}],"outputs":[],"stateMutability":"nonpayable"},{"type":"function","name":"supportsInterface","inputs":[{"name":"interfaceId","type":"bytes4","internalType":"bytes4"}],"outputs":[{"name":"","type":"bool","internalType":"bool"}],"stateMutability":"view"},{"type":"function","name":"uri","inputs":[{"name":"","type":"uint256","internalType":"uint256"}],"outputs":[{"name":"","type":"string","internalType":"string"}],"stateMutability":"view"},{"type":"event","name":"ApprovalForAll","inputs":[{"name":"account","type":"address","indexed":true,"internalType":"address"},{"name":"operator","type":"address","indexed":true,"internalType":"address"},{"name":"approved","type":"bool","indexed":false,"internalType":"bool"}],"anonymous":false},{"type":"event","name":"ChangedCardPackPrice","inputs":[{"name":"newPrice","type":"uint256","indexed":false,"internalType":"uint256"},{"name":"oldPrice","type":"uint256","indexed":false,"internalType":"uint256"}],"anonymous":false},{"type":"event","name":"DeployedCardsContract","inputs":[{"name":"owner","type":"address","indexed":true,"internalType":"address"},{"name":"coinsContract","type":"address","indexed":true,"internalType":"address"},{"name":"priceCardPack","type":"uint256","indexed":true,"internalType":"uint256"}],"anonymous":false},{"type":"event","name":"Log","inputs":[{"name":"func","type":"string","indexed":false,"internalType":"string"},{"name":"gas","type":"uint256","indexed":false,"internalType":"uint256"}],"anonymous":false},{"type":"event","name":"TransferBatch","inputs":[{"name":"operator","type":"address","indexed":true,"internalType":"address"},{"name":"from","type":"address","indexed":true,"internalType":"address"},{"name":"to","type":"address","indexed":true,"internalType":"address"},{"name":"ids","type":"uint256[]","indexed":false,"internalType":"uint256[]"},{"name":"values","type":"uint256[]","indexed":false,"internalType":"uint256[]"}],"anonymous":false},{"type":"event","name":"TransferSingle","inputs":[{"name":"operator","type":"address","indexed":true,"internalType":"address"},{"name":"from","type":"address","indexed":true,"internalType":"address"},{"name":"to","type":"address","indexed":true,"internalType":"address"},{"name":"id","type":"uint256","indexed":false,"internalType":"uint256"},{"name":"value","type":"uint256","indexed":false,"internalType":"uint256"}],"anonymous":false},{"type":"event","name":"URI","inputs":[{"name":"value","type":"string","indexed":false,"internalType":"string"},{"name":"id","type":"uint256","indexed":true,"internalType":"uint256"}],"anonymous":false},{"type":"error","name":"Cards__ArraysNotSameLength","inputs":[{"name":"lengthOne","type":"uint256","internalType":"uint256"},{"name":"lengthTwo","type":"uint256","internalType":"uint256"}]},{"type":"error","name":"Cards__FundRetrievalUnsuccessful","inputs":[]},{"type":"error","name":"Cards__InsufficientPayment","inputs":[]},{"type":"error","name":"Cards__NoCardsExist","inputs":[]},{"type":"error","name":"Cards__OnlyAvatarBasedAccount","inputs":[{"name":"playerAccount","type":"address","internalType":"address"}]},{"type":"error","name":"Cards__OnlyOwner","inputs":[]}],"bytecode":{"object":"0x608060405234801561001057600080fd5b50604051613e9a380380613e9a83398101604081905261002f91610289565b6040518060a00160405280606d8152602001613e2d606d913961005181610157565b50805182511461008557815181516040516396e0189360e01b81526004810192909252602482015260440160405180910390fd5b600980546001600160a01b031916331790556040516100a390610167565b604051809103906000f0801580156100bf573d6000803e3d6000fd5b50600a80546001600160a01b0319166001600160a01b0392909216919091179055600683905581516100f8906007906020850190610174565b50805161010c906008906020840190610174565b50600654600a546009546040516001600160a01b0392831692909116907f3ffdb46444f1f6eeef37e80aa5797deca5c3cf6af55517e71bf5ecea98a60aa190600090a4505050610443565b60026101638282610385565b5050565b61105580612dd883390190565b8280548282559060005260206000209081019282156101af579160200282015b828111156101af578251825591602001919060010190610194565b506101bb9291506101bf565b5090565b5b808211156101bb57600081556001016101c0565b634e487b7160e01b600052604160045260246000fd5b600082601f8301126101fb57600080fd5b81516001600160401b03811115610214576102146101d4565b604051600582901b90603f8201601f191681016001600160401b0381118282101715610242576102426101d4565b60405291825260208185018101929081018684111561026057600080fd5b6020860192505b8383101561027f578251815260209283019201610267565b5095945050505050565b60008060006060848603121561029e57600080fd5b835160208501519093506001600160401b038111156102bc57600080fd5b6102c8868287016101ea565b604086015190935090506001600160401b038111156102e657600080fd5b6102f2868287016101ea565b9150509250925092565b600181811c9082168061031057607f821691505b60208210810361033057634e487b7160e01b600052602260045260246000fd5b50919050565b601f82111561038057806000526020600020601f840160051c8101602085101561035d5750805b601f840160051c820191505b8181101561037d5760008155600101610369565b50505b505050565b81516001600160401b0381111561039e5761039e6101d4565b6103b2816103ac84546102fc565b84610336565b6020601f8211600181146103e657600083156103ce5750848201515b600019600385901b1c1916600184901b17845561037d565b600084815260208120601f198516915b8281101561041657878501518255602094850194600190920191016103f6565b50848210156104345786840151600019600387901b60f8161c191681555b50505050600190811b01905550565b612986806104526000396000f3fe6080604052600436106101695760003560e01c80635ef104ad116100d1578063c56f56f31161008a578063e5c291d411610064578063e5c291d41461053c578063e985e9c51461054f578063f23a6e6114610598578063f242432a146105c4576101cb565b8063c56f56f3146104dc578063e3978240146104fc578063e40de8871461051c576101cb565b80635ef104ad1461040c57806361b20d8c1461042c57806364bb42b014610441578063a12ed60f14610457578063a22cb46514610477578063bc197c8114610497576101cb565b806328e7204c1161012357806328e7204c1461031e5780632eb2c2d61461035657806347d8cfac146103765780634c03cd0b1461038c5780634e1273f4146103bf57806350028443146103ec576101cb565b8062fdd58e1461021f57806301ffc9a7146102525780630e89341c14610282578063104c75d5146102af5780631203c1e1146102d1578063246f7386146102fe576101cb565b366101cb577fdd970dd9b5bfe707922155b058a407655cb18288b807e2216442bca8ad83d6b55a6040516101c191906040808252600790820152667265636569766560c81b6060820152602081019190915260800190565b60405180910390a1005b7fdd970dd9b5bfe707922155b058a407655cb18288b807e2216442bca8ad83d6b55a6040516101c1919060408082526008908201526766616c6c6261636b60c01b6060820152602081019190915260800190565b34801561022b57600080fd5b5061023f61023a366004611d39565b6105e4565b6040519081526020015b60405180910390f35b34801561025e57600080fd5b5061027261026d366004611d7c565b61067d565b6040519015158152602001610249565b34801561028e57600080fd5b506102a261029d366004611d99565b6106cd565b6040516102499190611df8565b3480156102bb57600080fd5b506102cf6102ca366004611d99565b610761565b005b3480156102dd57600080fd5b5061023f6102ec366004611e0b565b600b6020526000908152604090205481565b34801561030a57600080fd5b5061023f610319366004611d99565b6107d1565b34801561032a57600080fd5b50600a5461033e906001600160a01b031681565b6040516001600160a01b039091168152602001610249565b34801561036257600080fd5b506102cf610371366004611f8e565b6107f2565b34801561038257600080fd5b5061023f60065481565b34801561039857600080fd5b506103ac6103a7366004611d99565b61083e565b6040516102499796959493929190612041565b3480156103cb57600080fd5b506103df6103da36600461209d565b6109a1565b60405161024991906121ac565b3480156103f857600080fd5b506102cf6104073660046121bf565b610ac2565b34801561041857600080fd5b5061023f610427366004611d99565b610b31565b34801561043857600080fd5b506102cf610b41565b34801561044d57600080fd5b5061023f60055481565b34801561046357600080fd5b506102cf6104723660046121fd565b610bdb565b34801561048357600080fd5b506102cf6104923660046123d0565b610e16565b3480156104a357600080fd5b506104c36104b2366004611f8e565b63bc197c8160e01b95945050505050565b6040516001600160e01b03199091168152602001610249565b3480156104e857600080fd5b5061023f6104f7366004611d99565b610e21565b34801561050857600080fd5b5060095461033e906001600160a01b031681565b34801561052857600080fd5b506103df610537366004611e0b565b610e31565b6102cf61054a366004611d99565b610f71565b34801561055b57600080fd5b5061027261056a36600461240c565b6001600160a01b03918216600090815260016020908152604080832093909416825291909152205460ff1690565b3480156105a457600080fd5b506104c36105b3366004612436565b63f23a6e6160e01b95945050505050565b3480156105d057600080fd5b506102cf6105df366004612436565b611366565b60006001600160a01b0383166106545760405162461bcd60e51b815260206004820152602a60248201527f455243313135353a2061646472657373207a65726f206973206e6f742061207660448201526930b634b21037bbb732b960b11b60648201526084015b60405180910390fd5b506000818152602081815260408083206001600160a01b03861684529091529020545b92915050565b60006001600160e01b03198216636cdb3d1360e11b14806106ae57506001600160e01b031982166303a24d0760e21b145b8061067757506301ffc9a760e01b6001600160e01b0319831614610677565b6060600280546106dc9061248e565b80601f01602080910402602001604051908101604052809291908181526020018280546107089061248e565b80156107555780601f1061072a57610100808354040283529160200191610755565b820191906000526020600020905b81548152906001019060200180831161073857829003601f168201915b50505050509050919050565b6009546001600160a01b0316331461078c5760405163adbe7e4160e01b815260040160405180910390fd5b600680549082905560408051838152602081018390527f65f42c9f4c1a42dfebfb9ad98c3c043919d471265b53829eedcaa06552d7eb4b910160405180910390a15050565b600881815481106107e157600080fd5b600091825260209091200154905081565b6001600160a01b03851633148061080e575061080e853361056a565b61082a5760405162461bcd60e51b815260040161064b906124c2565b61083785858585856113ab565b5050505050565b6004602052600090815260409020805481906108599061248e565b80601f01602080910402602001604051908101604052809291908181526020018280546108859061248e565b80156108d25780601f106108a7576101008083540402835291602001916108d2565b820191906000526020600020905b8154815290600101906020018083116108b557829003601f168201915b5050505050908060010180546108e79061248e565b80601f01602080910402602001604051908101604052809291908181526020018280546109139061248e565b80156109605780601f1061093557610100808354040283529160200191610960565b820191906000526020600020905b81548152906001019060200180831161094357829003601f168201915b5050506002909301549192505061ffff80821691620100008104821691640100000000820481169166010000000000008104821691600160401b9091041687565b60608151835114610a065760405162461bcd60e51b815260206004820152602960248201527f455243313135353a206163636f756e747320616e6420696473206c656e677468604482015268040dad2e6dac2e8c6d60bb1b606482015260840161064b565b600083516001600160401b03811115610a2157610a21611e26565b604051908082528060200260200182016040528015610a4a578160200160208202803683370190505b50905060005b8451811015610aba57610a95858281518110610a6e57610a6e612510565b6020026020010151858381518110610a8857610a88612510565b60200260200101516105e4565b828281518110610aa757610aa7612510565b6020908102919091010152600101610a50565b509392505050565b6009546001600160a01b03163314610aed5760405163adbe7e4160e01b815260040160405180910390fd5b6001600160a01b0381166000908152600b6020526040902054610b10838261253c565b6001600160a01b039092166000908152600b60205260409020919091555050565b600381815481106107e157600080fd5b6009546001600160a01b03163314610b6c5760405163adbe7e4160e01b815260040160405180910390fd5b6040514790600090339083908381818185875af1925050503d8060008114610bb0576040519150601f19603f3d011682016040523d82523d6000602084013e610bb5565b606091505b5050905080610bd75760405163851ae67160e01b815260040160405180910390fd5b5050565b6009546001600160a01b03163314610c065760405163adbe7e4160e01b815260040160405180910390fd5b8151835114610c3557825182516040516396e0189360e01b81526004810192909252602482015260440161064b565b60035415610c69576003805480610c4e57610c4e61254f565b60019003818190600052602060002001600090559055610c35565b60005b8351811015610d9c57600380546001810182556000919091527fc2575a0e9e593c00f959f8c92f12db2869c3395a3b0502d05e2516446f71f85b018190558351849082908110610cbe57610cbe612510565b60209081029190910181015160008381526004909252604090912081518190610ce790826125ac565b5060208201516001820190610cfc90826125ac565b506040820151600290910180546060840151608085015160a086015160c09096015161ffff908116600160401b0269ffff00000000000000001997821666010000000000000267ffff00000000000019938316640100000000029390931667ffffffff0000000019948316620100000263ffffffff1990961692909716919091179390931791909116939093179290921792909216179055600101610c6c565b50610da681611540565b610e11306003805480602002602001604051908101604052809291908181526020018280548015610df657602002820191906000526020600020905b815481526020019060010190808311610de2575b5050505050846040518060200160405280600081525061154c565b505050565b610bd73383836116c6565b600781815481106107e157600080fd5b606060006003805480602002602001604051908101604052809291908181526020018280548015610e8157602002820191906000526020600020905b815481526020019060010190808311610e6d575b50505050509050600081516001600160401b03811115610ea357610ea3611e26565b604051908082528060200260200182016040528015610ecc578160200160208202803683370190505b50905060005b8251811015610f0e5784828281518110610eee57610eee612510565b6001600160a01b0390921660209283029190910190910152600101610ed2565b50610f69816003805480602002602001604051908101604052809291908181526020018280548015610f5f57602002820191906000526020600020905b815481526020019060010190808311610f4b575b50505050506109a1565b949350505050565b33610f8381635194544760e01b6117a6565b610fab5760405163e4333d6960e01b81526001600160a01b038216600482015260240161064b565b60408051600580825260c082019092526000916020820160a080368337505060408051600580825260c0820190925292935060009291506020820160a08036833750506003805460408051602080840282018101909252828152949550600094935083018282801561103c57602002820191906000526020600020905b815481526020019060010190808311611028575b50505050509050600654341015611066576040516328dad4ab60e11b815260040160405180910390fd5b80516000036110885760405163a2f84bb760e01b815260040160405180910390fd5b600081516001600160401b038111156110a3576110a3611e26565b6040519080825280602002602001820160405280156110cc578160200160208202803683370190505b50905060005b60035481101561110f57308282815181106110ef576110ef612510565b6001600160a01b03909216602092830291909101909101526001016110d2565b50600061111c82846109a1565b90506000611129826117c9565b905060005b60058110156112485760008260018451611148919061266a565b8151811061115857611158612510565b60200260200101516111be8b8461116f919061253c565b60408051426020808301919091523360601b6bffffffffffffffffffffffff19168284015243406054830152607480830194909452825180830390940184526094909101909152815191012090565b6111c8919061267d565b905060005b818482815181106111e0576111e0612510565b6020026020010151101561120057806111f88161269f565b9150506111cd565b8089848151811061121357611213612510565b602002602001018181525050600188848151811061123357611233612510565b6020908102919091010152505060010161112e565b50600580549060006112598361269f565b919050555061127a30338888604051806020016040528060008152506113ab565b600780546000919061128e9060019061266a565b8154811061129e5761129e612510565b9060005260206000200154600554101561133a575b600554600782815481106112c9576112c9612510565b906000526020600020015410156112ec57806112e48161269f565b9150506112b3565b600881815481106112ff576112ff612510565b6000918252602080832090910154338352600b909152604090912054611325919061253c565b336000908152600b602052604090205561135b565b336000908152600b602052604081208054916113558361269f565b91905055505b505050505050505050565b6001600160a01b0385163314806113825750611382853361056a565b61139e5760405162461bcd60e51b815260040161064b906124c2565b61083785858585856118d8565b81518351146113cc5760405162461bcd60e51b815260040161064b906126b8565b6001600160a01b0384166113f25760405162461bcd60e51b815260040161064b90612700565b3360005b84518110156114d257600085828151811061141357611413612510565b60200260200101519050600085838151811061143157611431612510565b602090810291909101810151600084815280835260408082206001600160a01b038e1683529093529190912054909150818110156114815760405162461bcd60e51b815260040161064b90612745565b6000838152602081815260408083206001600160a01b038e8116855292528083208585039055908b168252812080548492906114be90849061253c565b9091555050600190930192506113f6915050565b50846001600160a01b0316866001600160a01b0316826001600160a01b03167f4a39dc06d4c0dbc64b70af90fd698a233a518aa5d07e595d983b8c0526c8f7fb878760405161152292919061278f565b60405180910390a46115388187878787876119f7565b505050505050565b6002610bd782826125ac565b6001600160a01b0384166115ac5760405162461bcd60e51b815260206004820152602160248201527f455243313135353a206d696e7420746f20746865207a65726f206164647265736044820152607360f81b606482015260840161064b565b81518351146115cd5760405162461bcd60e51b815260040161064b906126b8565b3360005b845181101561165e578381815181106115ec576115ec612510565b602002602001015160008087848151811061160957611609612510565b602002602001015181526020019081526020016000206000886001600160a01b03166001600160a01b031681526020019081526020016000206000828254611651919061253c565b90915550506001016115d1565b50846001600160a01b031660006001600160a01b0316826001600160a01b03167f4a39dc06d4c0dbc64b70af90fd698a233a518aa5d07e595d983b8c0526c8f7fb87876040516116af92919061278f565b60405180910390a4610837816000878787876119f7565b816001600160a01b0316836001600160a01b0316036117395760405162461bcd60e51b815260206004820152602960248201527f455243313135353a2073657474696e6720617070726f76616c20737461747573604482015268103337b91039b2b63360b91b606482015260840161064b565b6001600160a01b03838116600081815260016020908152604080832094871680845294825291829020805460ff191686151590811790915591519182527f17307eab39ab6107e8899845ad3d59bd9653f200f220920489ca2b5937696c31910160405180910390a3505050565b60006117b183611b5b565b80156117c257506117c28383611b8e565b9392505050565b606081516001600160401b038111156117e4576117e4611e26565b60405190808252806020026020018201604052801561180d578160200160208202803683370190505b50905060005b82518110156118d257806000036118615782818151811061183657611836612510565b602002602001015182828151811061185057611850612510565b6020026020010181815250506118ca565b82818151811061187357611873612510565b602002602001015182600183611889919061266a565b8151811061189957611899612510565b60200260200101516118ab919061253c565b8282815181106118bd576118bd612510565b6020026020010181815250505b600101611813565b50919050565b6001600160a01b0384166118fe5760405162461bcd60e51b815260040161064b90612700565b33600061190a85611c17565b9050600061191785611c17565b90506000868152602081815260408083206001600160a01b038c1684529091529020548581101561195a5760405162461bcd60e51b815260040161064b90612745565b6000878152602081815260408083206001600160a01b038d8116855292528083208985039055908a1682528120805488929061199790849061253c565b909155505060408051888152602081018890526001600160a01b03808b16928c821692918816917fc3d58168c5ae7397731d063d5bbf3d657854427343f4c083240f7aacaa2d0f62910160405180910390a461135b848a8a8a8a8a611c62565b6001600160a01b0384163b156115385760405163bc197c8160e01b81526001600160a01b0385169063bc197c8190611a3b90899089908890889088906004016127bd565b6020604051808303816000875af1925050508015611a76575060408051601f3d908101601f19168201909252611a739181019061281b565b60015b611b2257611a82612838565b806308c379a003611abb5750611a96612853565b80611aa15750611abd565b8060405162461bcd60e51b815260040161064b9190611df8565b505b60405162461bcd60e51b815260206004820152603460248201527f455243313135353a207472616e7366657220746f206e6f6e2d455243313135356044820152732932b1b2b4bb32b91034b6b83632b6b2b73a32b960611b606482015260840161064b565b6001600160e01b0319811663bc197c8160e01b14611b525760405162461bcd60e51b815260040161064b906128ce565b50505050505050565b6000611b6e826301ffc9a760e01b611b8e565b80156106775750611b87826001600160e01b0319611b8e565b1592915050565b604080516001600160e01b03198316602480830191909152825180830390910181526044909101909152602080820180516001600160e01b03166301ffc9a760e01b178152825160009392849283928392918391908a617530fa92503d91506000519050828015611c00575060208210155b8015611c0c5750600081115b979650505050505050565b60408051600180825281830190925260609160009190602080830190803683370190505090508281600081518110611c5157611c51612510565b602090810291909101015292915050565b6001600160a01b0384163b156115385760405163f23a6e6160e01b81526001600160a01b0385169063f23a6e6190611ca69089908990889088908890600401612916565b6020604051808303816000875af1925050508015611ce1575060408051601f3d908101601f19168201909252611cde9181019061281b565b60015b611ced57611a82612838565b6001600160e01b0319811663f23a6e6160e01b14611b525760405162461bcd60e51b815260040161064b906128ce565b80356001600160a01b0381168114611d3457600080fd5b919050565b60008060408385031215611d4c57600080fd5b611d5583611d1d565b946020939093013593505050565b6001600160e01b031981168114611d7957600080fd5b50565b600060208284031215611d8e57600080fd5b81356117c281611d63565b600060208284031215611dab57600080fd5b5035919050565b6000815180845260005b81811015611dd857602081850181015186830182015201611dbc565b506000602082860101526020601f19601f83011685010191505092915050565b6020815260006117c26020830184611db2565b600060208284031215611e1d57600080fd5b6117c282611d1d565b634e487b7160e01b600052604160045260246000fd5b601f8201601f191681016001600160401b0381118282101715611e6157611e61611e26565b6040525050565b604051611e7660e082611e3c565b90565b60006001600160401b03821115611e9257611e92611e26565b5060051b60200190565b600082601f830112611ead57600080fd5b8135611eb881611e79565b604051611ec58282611e3c565b80915082815260208101915060208360051b860101925085831115611ee957600080fd5b602085015b83811015611f06578035835260209283019201611eee565b5095945050505050565b600082601f830112611f2157600080fd5b8135602083016000806001600160401b03841115611f4157611f41611e26565b50604051601f8401601f191660200190611f5b8282611e3c565b809250848152878585011115611f7057600080fd5b84846020830137600060208683010152809550505050505092915050565b600080600080600060a08688031215611fa657600080fd5b611faf86611d1d565b9450611fbd60208701611d1d565b935060408601356001600160401b03811115611fd857600080fd5b611fe488828901611e9c565b93505060608601356001600160401b0381111561200057600080fd5b61200c88828901611e9c565b92505060808601356001600160401b0381111561202857600080fd5b61203488828901611f10565b9150509295509295909350565b60e08152600061205460e083018a611db2565b8281036020840152612066818a611db2565b61ffff988916604085015296881660608401525050928516608084015290841660a083015290921660c09092019190915292915050565b600080604083850312156120b057600080fd5b82356001600160401b038111156120c657600080fd5b8301601f810185136120d757600080fd5b80356120e281611e79565b6040516120ef8282611e3c565b80915082815260208101915060208360051b85010192508783111561211357600080fd5b6020840193505b8284101561213c5761212b84611d1d565b82526020938401939091019061211a565b945050505060208301356001600160401b0381111561215a57600080fd5b61216685828601611e9c565b9150509250929050565b600081518084526020840193506020830160005b828110156121a2578151865260209586019590910190600101612184565b5093949350505050565b6020815260006117c26020830184612170565b600080604083850312156121d257600080fd5b823591506121e260208401611d1d565b90509250929050565b803561ffff81168114611d3457600080fd5b60008060006060848603121561221257600080fd5b83356001600160401b0381111561222857600080fd5b8401601f8101861361223957600080fd5b803561224481611e79565b6040516122518282611e3c565b80915082815260208101915060208360051b85010192508883111561227557600080fd5b602084015b838110156123735780356001600160401b0381111561229857600080fd5b850160e0818c03601f190112156122ae57600080fd5b6122b6611e68565b60208201356001600160401b038111156122cf57600080fd5b6122de8d602083860101611f10565b82525060408201356001600160401b038111156122fa57600080fd5b6123098d602083860101611f10565b60208301525061231b606083016121eb565b604082015261232c608083016121eb565b606082015261233d60a083016121eb565b608082015261234e60c083016121eb565b60a082015261235f60e083016121eb565b60c08201528452506020928301920161227a565b50955050505060208401356001600160401b0381111561239257600080fd5b61239e86828701611e9c565b92505060408401356001600160401b038111156123ba57600080fd5b6123c686828701611f10565b9150509250925092565b600080604083850312156123e357600080fd5b6123ec83611d1d565b91506020830135801515811461240157600080fd5b809150509250929050565b6000806040838503121561241f57600080fd5b61242883611d1d565b91506121e260208401611d1d565b600080600080600060a0868803121561244e57600080fd5b61245786611d1d565b945061246560208701611d1d565b9350604086013592506060860135915060808601356001600160401b0381111561202857600080fd5b600181811c908216806124a257607f821691505b6020821081036118d257634e487b7160e01b600052602260045260246000fd5b6020808252602e908201527f455243313135353a2063616c6c6572206973206e6f7420746f6b656e206f776e60408201526d195c881bdc88185c1c1c9bdd995960921b606082015260800190565b634e487b7160e01b600052603260045260246000fd5b634e487b7160e01b600052601160045260246000fd5b8082018082111561067757610677612526565b634e487b7160e01b600052603160045260246000fd5b601f821115610e1157806000526020600020601f840160051c8101602085101561258c5750805b601f840160051c820191505b818110156108375760008155600101612598565b81516001600160401b038111156125c5576125c5611e26565b6125d9816125d3845461248e565b84612565565b6020601f82116001811461260d57600083156125f55750848201515b600019600385901b1c1916600184901b178455610837565b600084815260208120601f198516915b8281101561263d578785015182556020948501946001909201910161261d565b508482101561265b5786840151600019600387901b60f8161c191681555b50505050600190811b01905550565b8181038181111561067757610677612526565b60008261269a57634e487b7160e01b600052601260045260246000fd5b500690565b6000600182016126b1576126b1612526565b5060010190565b60208082526028908201527f455243313135353a2069647320616e6420616d6f756e7473206c656e677468206040820152670dad2e6dac2e8c6d60c31b606082015260800190565b60208082526025908201527f455243313135353a207472616e7366657220746f20746865207a65726f206164604082015264647265737360d81b606082015260800190565b6020808252602a908201527f455243313135353a20696e73756666696369656e742062616c616e636520666f60408201526939103a3930b739b332b960b11b606082015260800190565b6040815260006127a26040830185612170565b82810360208401526127b48185612170565b95945050505050565b6001600160a01b0386811682528516602082015260a0604082018190526000906127e990830186612170565b82810360608401526127fb8186612170565b9050828103608084015261280f8185611db2565b98975050505050505050565b60006020828403121561282d57600080fd5b81516117c281611d63565b600060033d1115611e765760046000803e5060005160e01c90565b600060443d10156128615790565b6040513d600319016004823e80513d60248201116001600160401b038211171561288a57505090565b80820180516001600160401b038111156128a5575050505090565b3d84016003190182820160200111156128bf575050505090565b610aba60208285010185611e3c565b60208082526028908201527f455243313135353a204552433131353552656365697665722072656a656374656040820152676420746f6b656e7360c01b606082015260800190565b6001600160a01b03868116825285166020820152604081018490526060810183905260a060808201819052600090611c0c90830184611db256fea264697066735822122002d247ece1ae027db3b7ff99e37fffd2b1e89ee40cbcb86ba80cbd7b95ee50db64736f6c634300081a003360a060405234801561001057600080fd5b506040518060400160405280601881526020017f4361747320446f677320616e64204d656d657320436f696e00000000000000008152506040518060400160405280600381526020016243444d60e81b8152508160039081610072919061026f565b50600461007f828261026f565b5050506100993363101cc41960e01b6100f060201b60201c565b6100bc576040516319a6a03b60e01b815233600482015260240160405180910390fd5b3360808190526040517f82e6d8c2e2044a55f3c4636dad5c7e1fe19bc3f0d0e811644ae30a4b76cd167d90600090a261032d565b60006100fb83610113565b801561010c575061010c8383610147565b9392505050565b6000610126826301ffc9a760e01b610147565b8015610141575061013f826001600160e01b0319610147565b155b92915050565b604080516001600160e01b03198316602480830191909152825180830390910181526044909101909152602080820180516001600160e01b03166301ffc9a760e01b178152825160009392849283928392918391908a617530fa92503d915060005190508280156101b9575060208210155b80156101c55750600081115b979650505050505050565b634e487b7160e01b600052604160045260246000fd5b600181811c908216806101fa57607f821691505b60208210810361021a57634e487b7160e01b600052602260045260246000fd5b50919050565b601f82111561026a57806000526020600020601f840160051c810160208510156102475750805b601f840160051c820191505b818110156102675760008155600101610253565b50505b505050565b81516001600160401b03811115610288576102886101d0565b61029c8161029684546101e6565b84610220565b6020601f8211600181146102d057600083156102b85750848201515b600019600385901b1c1916600184901b178455610267565b600084815260208120601f198516915b8281101561030057878501518255602094850194600190920191016102e0565b508482101561031e5786840151600019600387901b60f8161c191681555b50505050600190811b01905550565b608051610cff610356600039600081816102390152818161044601526105910152610cff6000f3fe608060405234801561001057600080fd5b50600436106100f55760003560e01c806395d89b4111610097578063a9059cbb11610066578063a9059cbb146101fb578063dd62ed3e1461020e578063ef09206514610221578063fbf08ab21461023457600080fd5b806395d89b41146101ab578063a457c2d7146101b3578063a77b6efb146101c6578063a8cf69e8146101db57600080fd5b806323b872dd116100d357806323b872dd1461014d578063313ce56714610160578063395093511461016f57806370a082311461018257600080fd5b806306fdde03146100fa578063095ea7b31461011857806318160ddd1461013b575b600080fd5b610102610273565b60405161010f9190610b02565b60405180910390f35b61012b610126366004610b6c565b610305565b604051901515815260200161010f565b6002545b60405190815260200161010f565b61012b61015b366004610b96565b61031f565b6040516012815260200161010f565b61012b61017d366004610b6c565b610343565b61013f610190366004610bd3565b6001600160a01b031660009081526020819052604090205490565b610102610365565b61012b6101c1366004610b6c565b610374565b6101d96101d4366004610bee565b6103f4565b005b61013f6101e9366004610bd3565b60056020526000908152604090205481565b61012b610209366004610b6c565b610534565b61013f61021c366004610c07565b610542565b61013f61022f366004610bd3565b61056d565b61025b7f000000000000000000000000000000000000000000000000000000000000000081565b6040516001600160a01b03909116815260200161010f565b60606003805461028290610c3a565b80601f01602080910402602001604051908101604052809291908181526020018280546102ae90610c3a565b80156102fb5780601f106102d0576101008083540402835291602001916102fb565b820191906000526020600020905b8154815290600101906020018083116102de57829003601f168201915b5050505050905090565b600033610313818585610629565b60019150505b92915050565b60003361032d85828561074d565b6103388585856107c7565b506001949350505050565b6000336103138185856103568383610542565b6103609190610c8a565b610629565b60606004805461028290610c3a565b600033816103828286610542565b9050838110156103e75760405162461bcd60e51b815260206004820152602560248201527f45524332303a2064656372656173656420616c6c6f77616e63652062656c6f77604482015264207a65726f60d81b60648201526084015b60405180910390fd5b6103388286868403610629565b3361040681635194544760e01b61096b565b61042e57604051636dcbad3160e11b81526001600160a01b03821660048201526024016103de565b604051631203c1e160e01b81523360048201526000907f00000000000000000000000000000000000000000000000000000000000000006001600160a01b031690631203c1e190602401602060405180830381865afa158015610495573d6000803e3d6000fd5b505050506040513d601f19601f820116820180604052508101906104b99190610c9d565b3360009081526005602052604090205490915081906104d89085610c8a565b11156104f7576040516311d7a76560e21b815260040160405180910390fd5b33600090815260056020526040902054610512908490610c8a565b3360008181526005602052604090209190915561052f9084610987565b505050565b6000336103138185856107c7565b6001600160a01b03918216600090815260016020908152604080832093909416825291909152205490565b604051631203c1e160e01b81526001600160a01b03828116600483015260009182917f00000000000000000000000000000000000000000000000000000000000000001690631203c1e190602401602060405180830381865afa1580156105d8573d6000803e3d6000fd5b505050506040513d601f19601f820116820180604052508101906105fc9190610c9d565b6001600160a01b0384166000908152600560205260409020549091506106229082610cb6565b9392505050565b6001600160a01b03831661068b5760405162461bcd60e51b8152602060048201526024808201527f45524332303a20617070726f76652066726f6d20746865207a65726f206164646044820152637265737360e01b60648201526084016103de565b6001600160a01b0382166106ec5760405162461bcd60e51b815260206004820152602260248201527f45524332303a20617070726f766520746f20746865207a65726f206164647265604482015261737360f01b60648201526084016103de565b6001600160a01b0383811660008181526001602090815260408083209487168084529482529182902085905590518481527f8c5be1e5ebec7d5bd14f71427d1e84f3dd0314c0f7b2291e5b200ac8c7c3b925910160405180910390a3505050565b60006107598484610542565b905060001981146107c157818110156107b45760405162461bcd60e51b815260206004820152601d60248201527f45524332303a20696e73756666696369656e7420616c6c6f77616e636500000060448201526064016103de565b6107c18484848403610629565b50505050565b6001600160a01b03831661082b5760405162461bcd60e51b815260206004820152602560248201527f45524332303a207472616e736665722066726f6d20746865207a65726f206164604482015264647265737360d81b60648201526084016103de565b6001600160a01b03821661088d5760405162461bcd60e51b815260206004820152602360248201527f45524332303a207472616e7366657220746f20746865207a65726f206164647260448201526265737360e81b60648201526084016103de565b6001600160a01b038316600090815260208190526040902054818110156109055760405162461bcd60e51b815260206004820152602660248201527f45524332303a207472616e7366657220616d6f756e7420657863656564732062604482015265616c616e636560d01b60648201526084016103de565b6001600160a01b03848116600081815260208181526040808320878703905593871680835291849020805487019055925185815290927fddf252ad1be2c89b69c2b068fc378daa952ba7f163c4a11628f55a4df523b3ef910160405180910390a36107c1565b600061097683610a46565b801561062257506106228383610a79565b6001600160a01b0382166109dd5760405162461bcd60e51b815260206004820152601f60248201527f45524332303a206d696e7420746f20746865207a65726f20616464726573730060448201526064016103de565b80600260008282546109ef9190610c8a565b90915550506001600160a01b038216600081815260208181526040808320805486019055518481527fddf252ad1be2c89b69c2b068fc378daa952ba7f163c4a11628f55a4df523b3ef910160405180910390a35050565b6000610a59826301ffc9a760e01b610a79565b80156103195750610a72826001600160e01b0319610a79565b1592915050565b604080516001600160e01b03198316602480830191909152825180830390910181526044909101909152602080820180516001600160e01b03166301ffc9a760e01b178152825160009392849283928392918391908a617530fa92503d91506000519050828015610aeb575060208210155b8015610af75750600081115b979650505050505050565b602081526000825180602084015260005b81811015610b305760208186018101516040868401015201610b13565b506000604082850101526040601f19601f83011684010191505092915050565b80356001600160a01b0381168114610b6757600080fd5b919050565b60008060408385031215610b7f57600080fd5b610b8883610b50565b946020939093013593505050565b600080600060608486031215610bab57600080fd5b610bb484610b50565b9250610bc260208501610b50565b929592945050506040919091013590565b600060208284031215610be557600080fd5b61062282610b50565b600060208284031215610c0057600080fd5b5035919050565b60008060408385031215610c1a57600080fd5b610c2383610b50565b9150610c3160208401610b50565b90509250929050565b600181811c90821680610c4e57607f821691505b602082108103610c6e57634e487b7160e01b600052602260045260246000fd5b50919050565b634e487b7160e01b600052601160045260246000fd5b8082018082111561031957610319610c74565b600060208284031215610caf57600080fd5b5051919050565b8181038181111561031957610319610c7456fea2646970667358221220e808777684f3e91bb142e48d857021ca88929775a4ac6e0c93a5dcc33b22598064736f6c634300081a003368747470733a2f2f617175612d66616d6f75732d7361696c666973682d3238382e6d7970696e6174612e636c6f75642f697066732f516d584e56694254736b68643631626a4b6f4538675a4d585a57346463537a506a566b6b47714664705a756746472f7b69647d2e6a736f6e","linkReferences":{}},"methodIdentifiers":{"addToCoinAllowance(uint256,address)":"50028443","balanceOf(address,uint256)":"00fdd58e","balanceOfBatch(address[],uint256[])":"4e1273f4","createCards((string,string,uint16,uint16,uint16,uint16,uint16)[],uint256[],string)":"a12ed60f","getCollection(address)":"e40de887","isApprovedForAll(address,address)":"e985e9c5","onERC1155BatchReceived(address,address,uint256[],uint256[],bytes)":"bc197c81","onERC1155Received(address,address,uint256,uint256,bytes)":"f23a6e61","openCardPack(uint256)":"e5c291d4","retrieveFunds()":"61b20d8c","s_cardIds(uint256)":"5ef104ad","s_cardPackCounter()":"64bb42b0","s_cards(uint256)":"4c03cd0b","s_coinAllowance(address)":"1203c1e1","s_coins()":"28e7204c","s_owner()":"e3978240","s_packCoinAmounts(uint256)":"246f7386","s_packThresholds(uint256)":"c56f56f3","s_priceCardPack()":"47d8cfac","safeBatchTransferFrom(address,address,uint256[],uint256[],bytes)":"2eb2c2d6","safeTransferFrom(address,address,uint256,uint256,bytes)":"f242432a","setApprovalForAll(address,bool)":"a22cb465","setPriceCardPack(uint256)":"104c75d5","supportsInterface(bytes4)":"01ffc9a7","uri(uint256)":"0e89341c"},"id":56}